{
  "contractName": "user",
  "abi": [
    {
      "constant": true,
      "inputs": [],
      "name": "userCount",
      "outputs": [
        {
          "name": "",
          "type": "uint256"
        }
      ],
      "payable": false,
      "stateMutability": "view",
      "type": "function",
      "signature": "0x07973ccf"
    },
    {
      "constant": true,
      "inputs": [
        {
          "name": "",
          "type": "uint256"
        }
      ],
      "name": "candidates",
      "outputs": [
        {
          "name": "id",
          "type": "uint256"
        },
        {
          "name": "firstname",
          "type": "string"
        },
        {
          "name": "lastname",
          "type": "string"
        },
        {
          "name": "fathername",
          "type": "string"
        },
        {
          "name": "expdate",
          "type": "string"
        },
        {
          "name": "nationality",
          "type": "string"
        },
        {
          "name": "gender",
          "type": "string"
        },
        {
          "name": "nId",
          "type": "uint256"
        }
      ],
      "payable": false,
      "stateMutability": "view",
      "type": "function",
      "signature": "0x3477ee2e"
    },
    {
      "inputs": [],
      "payable": false,
      "stateMutability": "nonpayable",
      "type": "constructor",
      "signature": "constructor"
    }
  ],
  "bytecode": "0x60806040523480156200001157600080fd5b50620001736040805190810160405280600581526020017f50726f6d650000000000000000000000000000000000000000000000000000008152506040805190810160405280600481526020017f616c616d000000000000000000000000000000000000000000000000000000008152506040805190810160405280600981526020017f5368616820416c616d00000000000000000000000000000000000000000000008152506040805190810160405280600a81526020017f32332d30332d32303230000000000000000000000000000000000000000000008152506040805190810160405280600b81526020017f42616e676c6164657368690000000000000000000000000000000000000000008152506040805190810160405280600681526020017f46656d616c65000000000000000000000000000000000000000000000000000081525062ab4130620006fd640100000000026401000000009004565b620002d46040805190810160405280600481526020017f556d6d65000000000000000000000000000000000000000000000000000000008152506040805190810160405280600781526020017f6a616e6e617468000000000000000000000000000000000000000000000000008152506040805190810160405280600b81526020017f416674616220556464696e0000000000000000000000000000000000000000008152506040805190810160405280600981526020017f342d31302d3230323100000000000000000000000000000000000000000000008152506040805190810160405280600b81526020017f42616e676c6164657368690000000000000000000000000000000000000000008152506040805190810160405280600681526020017f46656d616c65000000000000000000000000000000000000000000000000000081525062ab4131620006fd640100000000026401000000009004565b620004356040805190810160405280600581526020017f4a616c616c0000000000000000000000000000000000000000000000000000008152506040805190810160405280600581526020017f756464696e0000000000000000000000000000000000000000000000000000008152506040805190810160405280600b81526020017f446172616a20556464696e0000000000000000000000000000000000000000008152506040805190810160405280600981526020017f32342d352d3230323100000000000000000000000000000000000000000000008152506040805190810160405280600b81526020017f42616e676c6164657368690000000000000000000000000000000000000000008152506040805190810160405280600481526020017f4d616c650000000000000000000000000000000000000000000000000000000081525062ab4132620006fd640100000000026401000000009004565b620005966040805190810160405280600781526020017f496e6e61697961000000000000000000000000000000000000000000000000008152506040805190810160405280600581526020017f69736c616d0000000000000000000000000000000000000000000000000000008152506040805190810160405280600b81526020017f4d617275662049736c616d0000000000000000000000000000000000000000008152506040805190810160405280600881526020017f372d322d323032300000000000000000000000000000000000000000000000008152506040805190810160405280600b81526020017f42616e676c6164657368690000000000000000000000000000000000000000008152506040805190810160405280600681526020017f46656d616c65000000000000000000000000000000000000000000000000000081525062ab4133620006fd640100000000026401000000009004565b620006f76040805190810160405280600781526020017f496e6e616d616c000000000000000000000000000000000000000000000000008152506040805190810160405280600581526020017f69736c616d0000000000000000000000000000000000000000000000000000008152506040805190810160405280600b81526020017f4d617275662049736c616d0000000000000000000000000000000000000000008152506040805190810160405280600981526020017f31302d322d3230323000000000000000000000000000000000000000000000008152506040805190810160405280600b81526020017f42616e676c6164657368690000000000000000000000000000000000000000008152506040805190810160405280600481526020017f4d616c650000000000000000000000000000000000000000000000000000000081525062ab4134620006fd640100000000026401000000009004565b620008e9565b600160008154809291906001019190505550610100604051908101604052806001548152602001888152602001878152602001868152602001858152602001848152602001838152602001828152506000806001548152602001908152602001600020600082015181600001556020820151816001019080519060200190620007889291906200083a565b506040820151816002019080519060200190620007a79291906200083a565b506060820151816003019080519060200190620007c69291906200083a565b506080820151816004019080519060200190620007e59291906200083a565b5060a0820151816005019080519060200190620008049291906200083a565b5060c0820151816006019080519060200190620008239291906200083a565b5060e0820151816007015590505050505050505050565b828054600181600116156101000203166002900490600052602060002090601f016020900481019282601f106200087d57805160ff1916838001178555620008ae565b82800160010185558215620008ae579182015b82811115620008ad57825182559160200191906001019062000890565b5b509050620008bd9190620008c1565b5090565b620008e691905b80821115620008e2576000816000905550600101620008c8565b5090565b90565b61076480620008f96000396000f3fe60806040526004361061004c576000357c0100000000000000000000000000000000000000000000000000000000900463ffffffff16806307973ccf146100515780633477ee2e1461007c575b600080fd5b34801561005d57600080fd5b5061006661035a565b6040518082815260200191505060405180910390f35b34801561008857600080fd5b506100b56004803603602081101561009f57600080fd5b8101908080359060200190929190505050610360565b6040518089815260200180602001806020018060200180602001806020018060200188815260200187810387528e818151815260200191508051906020019080838360005b838110156101155780820151818401526020810190506100fa565b50505050905090810190601f1680156101425780820380516001836020036101000a031916815260200191505b5087810386528d818151815260200191508051906020019080838360005b8381101561017b578082015181840152602081019050610160565b50505050905090810190601f1680156101a85780820380516001836020036101000a031916815260200191505b5087810385528c818151815260200191508051906020019080838360005b838110156101e15780820151818401526020810190506101c6565b50505050905090810190601f16801561020e5780820380516001836020036101000a031916815260200191505b5087810384528b818151815260200191508051906020019080838360005b8381101561024757808201518184015260208101905061022c565b50505050905090810190601f1680156102745780820380516001836020036101000a031916815260200191505b5087810383528a818151815260200191508051906020019080838360005b838110156102ad578082015181840152602081019050610292565b50505050905090810190601f1680156102da5780820380516001836020036101000a031916815260200191505b50878103825289818151815260200191508051906020019080838360005b838110156103135780820151818401526020810190506102f8565b50505050905090810190601f1680156103405780820380516001836020036101000a031916815260200191505b509e50505050505050505050505050505060405180910390f35b60015481565b6000602052806000526040600020600091509050806000015490806001018054600181600116156101000203166002900480601f0160208091040260200160405190810160405280929190818152602001828054600181600116156101000203166002900480156104125780601f106103e757610100808354040283529160200191610412565b820191906000526020600020905b8154815290600101906020018083116103f557829003601f168201915b505050505090806002018054600181600116156101000203166002900480601f0160208091040260200160405190810160405280929190818152602001828054600181600116156101000203166002900480156104b05780601f10610485576101008083540402835291602001916104b0565b820191906000526020600020905b81548152906001019060200180831161049357829003601f168201915b505050505090806003018054600181600116156101000203166002900480601f01602080910402602001604051908101604052809291908181526020018280546001816001161561010002031660029004801561054e5780601f106105235761010080835404028352916020019161054e565b820191906000526020600020905b81548152906001019060200180831161053157829003601f168201915b505050505090806004018054600181600116156101000203166002900480601f0160208091040260200160405190810160405280929190818152602001828054600181600116156101000203166002900480156105ec5780601f106105c1576101008083540402835291602001916105ec565b820191906000526020600020905b8154815290600101906020018083116105cf57829003601f168201915b505050505090806005018054600181600116156101000203166002900480601f01602080910402602001604051908101604052809291908181526020018280546001816001161561010002031660029004801561068a5780601f1061065f5761010080835404028352916020019161068a565b820191906000526020600020905b81548152906001019060200180831161066d57829003601f168201915b505050505090806006018054600181600116156101000203166002900480601f0160208091040260200160405190810160405280929190818152602001828054600181600116156101000203166002900480156107285780601f106106fd57610100808354040283529160200191610728565b820191906000526020600020905b81548152906001019060200180831161070b57829003601f168201915b505050505090806007015490508856fea165627a7a7230582037f383da0cc0e27e02013ccef2539a12c5c7a362c0761cf7766d4770cb8f92770029",
  "source": "pragma solidity 0.5.0;\n\ncontract user {\nstruct userInfo {\n        uint id;\n        string firstname;\n        string lastname;\n        string fathername;\n        string expdate;\n        string nationality;\n        string gender;\n\n        uint nId;\n    }\n\n    mapping(uint => userInfo) public candidates;\n\n uint public userCount;\n\n\n    // Constructor\n   constructor () public {\n        adduser (\"Prome\",\"alam\",\"Shah Alam\",\"23-03-2020\",\"Bangladeshi\",\"Female\",11223344);\n        adduser (\"Umme\",\"jannath\",\"Aftab Uddin\",\"4-10-2021\",\"Bangladeshi\",\"Female\",11223345);\n        adduser (\"Jalal\",\"uddin\",\"Daraj Uddin\",\"24-5-2021\",\"Bangladeshi\",\"Male\",11223346);\n        adduser (\"Innaiya\",\"islam\",\"Maruf Islam\",\"7-2-2020\",\"Bangladeshi\",\"Female\",11223347);\n        adduser (\"Innamal\",\"islam\",\"Maruf Islam\",\"10-2-2020\",\"Bangladeshi\",\"Male\",11223348);\n    }\n    function adduser (string memory _firstname,string memory _lastname,string memory _fathername,string memory _expdate,string memory _nationality,string memory _gender,uint _nId) private {\n    userCount ++;\n    candidates[userCount] = userInfo(userCount, _firstname,_lastname,_fathername,_expdate,_nationality,_gender,_nId );\n}\n}\n",
  "sourcePath": "C:/Users/promi/passport1/contracts/user.sol",
  "compiler": {
    "name": "solc",
    "version": "0.5.0+commit.1d4f565a.Emscripten.clang"
  },
  "schemaVersion": "3.0.6",
  "updatedAt": "2019-04-25T18:15:29.990Z",
  "devdoc": {
    "methods": {}
  },
  "userdoc": {
    "methods": {}
  }
}